:020000040800F2
:10000000A00B00208502000887500008893D0008E9
:100010008550000889160008215A000800000000D9
:10002000000000000000000000000000BD510008BA
:100030003918000800000000F5500008D9510008E8
:100040009F0200089F0200089F0200089F0200080C
:100050009F0200089F0200089F0200089F020008FC
:100060009F0200089F0200089F0200089F020008EC
:100070009F0200089F0200089F0200089F020008DC
:100080009F0200089F0200089F0200089F020008CC
:100090009F0200089F0200089F0200089F020008BC
:1000A0009F0200089F0200089F0200089F020008AC
:1000B0009F0200089F0200089F020008993D000867
:1000C0008D3D00089F0200089F0200089F02000863
:1000D0009F020008795900089F0200089F0200084B
:1000E0009F0200089F0200089F0200089F0200086C
:1000F0009F0200089F0200089F0200089F0200085C
:100100009F0200089F0200089F0200089F0200084B
:100110009F0200089F0200089F0200089F0200083B
:100120009F02000865170008711700089F02000869
:100130009F02000800000000000000009F0200086D
:100140009F0200089F0200089F0200089F0200080B
:100150009F0200087D170008891700089F02000809
:100160009F0200089F0200089F0200089F020008EB
:100170009F0200089F0200089F0200080000000084
:10018000000000009F0200080000000000000000C6
:100190009F02000800000000000000009F0200080D
:1001A0000000000000000000000000009F020008A6
:1001B0009F0200089F0200089F0200089F0200089B
:1001C0009F02000800F002F800F04CF80AA090E846
:1001D000000C82448344AAF10107DA4501D100F002
:1001E00041F8AFF2090EBAE80F0013F0010F18BF83
:1001F000FB1A43F001031847FC5D00001C5E000081
:10020000103A24BF78C878C1FAD8520724BF30C842
:1002100030C144BF04680C60704700000023002414
:1002200000250026103A28BF78C1FBD8520728BF06
:1002300030C148BF0B607047662905F07F8675297D
:1002400000F0D480002070471FB505F072FE00F06A
:1002500049FC04000020002105F0DEFDE0601FBD28
:1002600010B510BD00F03EFD1146FFF7EDFF05F0A3
:100270000DFC00F05CFD03B4FFF7F2FF03BC00F0DF
:100280009FFD00000948804709480047FEE7FEE758
:10029000FEE7FEE7FEE7FEE7FEE7FEE7FEE7FEE736
:1002A00004480549054A064B704700007D52000886
:1002B000C5010008A0050020A00B0020A007002019
:1002C000A007002053EA020C00F069802DE9F04BF2
:1002D0004FF00006002B1FBFB3FA83F503FA05F4B5
:1002E00024FA05F65E4012BF1643B2FA82F502FA0E
:1002F00005F4C5F120051EBF22FA05FC44EA0C04F2
:10030000203556EA044C4FEA144418BF641C4FF0E1
:1003100000084FF00009904271EB030C39D300291B
:1003200019BFB1FA81F701FA07F6B0FA80F700FABF
:1003300007F6C7F120071EBF20FA07FC46EA0C06A5
:100340002037B6FBF4FCA7EB0507103F07F01F0BA7
:10035000CBF120060CFA0BFB2CFA06F644BFB34691
:100360000026202FA4BF5E464FF0000B5BEA060C70
:1003700008BF4FF0010B19EB0B09ABFB027C48EBFC
:100380000608C01B06FB02CC0BFB03CC71EB0C0177
:10039000C1E70B46024641464846BDE8F08B13B51F
:1003A0004FF000004FF00001AFF30080BDE81C40AB
:1003B000704700000FB47CB50C0009AA009001D072
:1003C0002044401E084B7B4469460190089800F089
:1003D00068FB05461CB10020694600F075FB284605
:1003E0007CBC5DF814FB0000090700002DE9F0411A
:1003F0000646002410687529314616A510D0AFF3C3
:100400000080002802DA404213A507E031688A071D
:1004100001D512A502E0490704D511A5012401E088
:10042000AFF3008000210A2206F1240709E0B0FBA7
:10043000F2FCB0FBF2F302FB1C003030785418469B
:10044000491C0028F3D123462A463046BDE8F04136
:1004500000F0B9B8000000002D0000002B000000E3
:10046000200000002DE9F0474FF0000A89460446BD
:10047000C0F820A02046E1688847002876D02528CB
:1004800006D0D4E901219047206A401C2062F1E7A0
:10049000E168204600258847C4F81CA006460027CE
:1004A000C4F818A02A2E09D0304605F0E2FA38B375
:1004B00004EB8708303EC8F8186019E059F8041BAF
:1004C000204604EB87029161E1688847012F0646C8
:1004D00018D1E069002820DA25F020051DE0D8F8C1
:1004E000180000EB800006EB40003038C8F8180018
:1004F0002046E1688847064605F0BBFA0028EED1A1
:10050000012F0AD02E2E08D12046E16888477F1C93
:100510000646022F45F02005C4DBA069002803DA57
:10052000404245F00105A061E80701D025F0100523
:10053000B6B1A6F14100192802D8203645F400656D
:100540004A463146204625604D46FFF775FE58B1B4
:10055000012806D0ED1D25F0070000F1080989E704
:1005600004E005F1040985E730468AE7206ABDE822
:10057000F0874FF0000200B51346944696462039A6
:1005800022BFA0E80C50A0E80C50B1F12001BFF44C
:10059000F7AF090728BFA0E80C5048BF0CC05DF8B2
:1005A00004EB890028BF40F8042B08BF704748BF00
:1005B00020F8022B11F0804F18BF00F8012B704774
:1005C0007047704770472DE9F0470D4699469246AF
:1005D000044600F124080168880604D5E06921F08A
:1005E0001001216000E00120A84201DD471B00E06E
:1005F0000027A1697A1902EB0900081AA061207886
:10060000C00602D42046AFF30080002608E0D4E9FB
:1006100001211AF806009047206A401C761C2062CF
:100620004E45F4DB2078C0060AD52046AFF30080A3
:1006300006E0D4E9012130209047206A401C206266
:10064000381EA7F10107F4DC07E0D4E9012118F80E
:1006500005009047206A401C2062281EA5F1010574
:10066000F3DC2046AFF300802078000602D502209C
:10067000BDE8F0870120FBE770472DE9FF4F0C46EE
:100680001E464FF0FF378BB0D2E90001DDF86080E5
:100690000A908A46C1F30A5505B93D46002108462D
:1006A0004FF00000BAF1000F00F4400005DA00EB53
:1006B00080004FF4400101EA50004FEA9059B9F12F
:1006C000010F00DDB9460A9850EA4A000ED044F600
:1006D0001050A5F2FF3545432F14B8F1000F1ED07E
:1006E0007542291E1EDDC9F100021CE0B8F1010FA0
:1006F0004FF0000001D0302103E0F24305E0215427
:10070000401CB042FBDB30460022002121540B99F3
:10071000C1F80880C1E900200FB0BDE8F08FBD1B13
:100720006D1CDEE74A4600DA694206A800F064FA6A
:1007300006AB93E8070003AB83E8070050460A992D
:1007400000F045FB8DE80700A0F500501F38009031
:100750000398002D0ADD42F21F014A460844002397
:1007600003A90390684600F0AEFD09E0A0F5005033
:100770004A461F38002303A90390684600F0B8FDDD
:100780008DE807000004000C03D04FF0FF30410853
:1007900000E01046B8F1000F03D000220092154689
:1007A0001EE0751E05D400F0A1F9303262556D1EB1
:1007B000F9D5B3460122084302D000227F1C04E091
:1007C0002078302801D100227F1E002A099784D08A
:1007D0001DE0112D07DA00F089F9303262556D1CE9
:1007E00050EA0102F5D1084302D00098C8B10EE0EA
:1007F0000021681E05E0235C625C63542254401EA5
:10080000491C8142F7DBAB46A81B401E0990002023
:1008100004F80B000B98099AC0F80880C0E9002B77
:100820007AE711264FF0000857E72DE9F04F884688
:100830000446D21D22F0070191B0D1E90001CDE9B3
:100840000A0105F0EEF802460B98C00F01D02D20EA
:1008500007E02068810701D52B2002E0202101EA72
:10086000C000032A099001D0072A05DB0346414650
:10087000204600F081F90BE12078800601D5E0697F
:1008800000E00620B8F1650F814606D0B8F1660F8A
:1008900018D0B8F1670F70D131E00020B9F1110F15
:1008A000009001DB112301E009F101030AAA01A96B
:1008B0000CA8FFF7E2FEDDE90C70002609F1010546
:1008C000834647E001204B4600904FF000470AAABC
:1008D00001A90CA8FFF7D1FEDDE90DB00C995D462A
:1008E000002610B909F101000D18B9EB050003D479
:1008F000C0F1FF3609F10105A5EB09002BE0B9F1C4
:10090000010F01DA4FF001090020B9F1110F009039
:10091000484601DD112300E003460AAA01A90CA8FC
:10092000FFF7ABFEDDE90C704D46002683462078CC
:1009300000070AD4AB4500DA5D4601A8012D04DDAD
:10094000411911F8011C302907D04F4502DA17F17F
:10095000040F04DA012082460FE06D1EEEE7002F3F
:1009600002DCED1B3E4403E0781CA84200DD7D1C48
:10097000B81B00F1010A4FF000472078000703D4AC
:10098000AA4501DB4FF0FF3A0021B7F1004F0DF10E
:1009900043088DF8431024D002202B23002F01DAC6
:1009A0007F422D230A21021EA0F1010000DC5FB16D
:1009B00097FBF1FC97FBF1F201FB1C7C17460CF155
:1009C000300C08F801CDEEE7A8F101000370218892
:1009D000090501D5452100E06521A0F1010800F8D5
:1009E000011C09980FA9A1EB0807FF1D00B1012008
:1009F000411901EBEA70A1693844081A401EA06150
:100A00002078C00602D42046AFF30080099828B1B0
:100A1000D4E901219047206A401C20622078C0065A
:100A200022D52046AFF300801EE0002E04DBB34544
:100A300002DD01A8805D00E03020D4E9012190476B
:100A4000206A401C2062761CAAF101005FEA000ABD
:100A50000AD100F047F8C0680168405CD4E9012180
:100A60009047206A401C2062281EA5F10105DCDCAD
:100A700007E0D4E9012118F8010B9047206A401CD7
:100A80002062381EA7F10107F3DC2046AFF3008097
:100A9000032011B041E6000001694A1C0261087898
:100AA000704700B58FB0CDE90131002105910549AE
:100AB0007944CDE9031011466846FFF7D3FC0FB027
:100AC00000BD0000E5FFFFFF0A6802F8010B0A60A5
:100AD0007047D1E900239A4202D2531C0B60107078
:100AE00070470000004870476005002030B5B0F145
:100AF0000A024FEA900E71F100034EEA817EB0EBDC
:100B00000E0061EB91014FEA101E4EEA017E10EBE0
:100B10000E0041EB11114FEA102E4EEA016E10EB60
:100B20000E0041EB11214FEA104E4EEA014E10EB40
:100B30000E0041EB1141401841F100014FEAD00095
:100B400040EA41704FEAD10110EB80054FEA810481
:100B500044EA907444EB01046D1944EB0404521B05
:100B6000A3414FF0000348BF0A3200D530BD401CFE
:100B700041F1000130BD00002DE9F0411F4604465F
:100B800003260168072A01F4006004DB08B116A5FA
:100B900005E016A503E008B115A500E015A521F0B4
:100BA00010002060A069C01EA0610FB1401EA061AE
:100BB0002046AFF300804FB1D4E901213846904779
:100BC000206A401C2062C01C206206E0206AFAE70E
:100BD000D4E9012115F8010B9047761EF8D2204682
:100BE000AFF30080BDE8F0814E414E006E616E00B3
:100BF000494E4600696E66002DE9F047814616466B
:100C00008AB0354878440DC88DE80D0032487844E4
:100C1000801C03AC0DC884E80D0041F69B300844ED
:100C2000372190FBF1F290FBF1F5A5F1800501FB76
:100C300012041B3C02D56442012000E00020DFF8D2
:100C400098A080460027FA44AAF1BE0A0EE0E00709
:100C50000AD03246684607EB470101230AEB8101BF
:100C600000F046FB8DE8070064107F1C002CEED1DD
:100C7000194F7F44AE3F19E0E80715D007EB041089
:100C80000DF1180A90E80E008AE80E00C068F042E4
:100C900001D1981908903246012306A903A800F053
:100CA00027FB03AB83E807006D10641C002DE3D124
:100CB0004FF0010332466946B8F1000F03A802D095
:100CC00000F001FB01E000F013FBC9E90001C9F8E5
:100CD00008200AB0BDE8F087D453000000487047F0
:100CE000400500207546FFF7F9FFAE46050069464E
:100CF000534620F00700854618B020B5FFF7D0FA1C
:100D0000BDE820404FF000064FF000074FF000080C
:100D10004FF0000B21F00701AC46ACE8C009ACE88D
:100D2000C009ACE8C009ACE8C0098D46704710B5F1
:100D30000446AFF300802046BDE81040FFF79BBAA1
:100D40004FF0013C50F8042B51F8043B9A4221D15A
:100D5000A2EB0C03934313EACC1317D150F8042BE6
:100D600051F8043B9A4215D1A2EB0C03934313EACA
:100D7000CC130BD150F8042B51F8043B9A4209D103
:100D8000A2EB0C03934313EACC13DBD04FF000002B
:100D9000704700BFD01A01BAB1FA81F101F0180111
:100DA00022FA01F0CB40C1F12001DBB2C0B2C01A7F
:100DB0002CFA01F3D11A914311EAC311E6D170471D
:100DC00001491820ABBEFEE72600020070475FEA2B
:100DD000400C08BF91F0000F4FEA8C234FEAC1226C
:100DE00043EA51514FEA1C5018BF00F5F0404FEA5A
:100DF000300018BF41F000415FEA6C5C00F02980D0
:100E0000BCF1FF3F08BF40F080407047130C06BFA5
:100E100012044FF0100C4FF0000C130E04BF12021E
:100E20000CF1080C130F04BF12010CF1040C930F0A
:100E300004BF92000CF1020CD30F04BF52000CF15E
:100E4000010C11464FF00002A0F11F00A0EB0C00B6
:100E5000704711F0004F08BF704731F000413FF478
:100E6000D5AF0B0C06BF09044FF0100C4FF0000C6F
:100E70000B0E04BF09020CF1080C0B0F04BF090193
:100E80000CF1040C8B0F04BF89000CF1020CCB0F8A
:100E900004BF49000CF1010CCCF12003A0EB0C00C5
:100EA00022FA03F302FA0CF241EA030100F1010015
:100EB000704720F07F4C80EA030023F07F47ACEBC3
:100EC000070303F57C5300F0004003F1FF032DE915
:100ED00080494FEA154B09B44FEA144325EA0B4EFB
:100EE00024EA03480FF2042606EB132749083E784C
:100EF0005FEA320203FB0667C7F5000707FB06F649
:100F00004FEA54374FEAD64606F1020607FB066C55
:100F1000CCF1005C4FEA1C472CEA074C07FB06F4B7
:100F20000CFB06F504EB15464FEA961634BF00207D
:100F30004FF000404FEAD13706FB07FC4FEA1C4C4C
:100F40000CFB0BF7D21B03FB0CF761EB07010CFB4F
:100F50000EF7B0EB074072EB17420CFB08F734BFFB
:100F6000A2EB0742B2EB074261EB17414FEA0C4498
:100F70004FEA910706FB07FC4FEA1C4C0CFB0BF7F2
:100F8000B0EBC74072EB573203FB0CF734BFA2EB58
:100F9000C742B2EBC74261EB57310CFB0EF7B0EB27
:100FA000C70072EB57720CFB08F734BFA2EBC70205
:100FB000B2EBC70261EB5771039F4FEA816141EACF
:100FC000921104EBCC044FEAD1374FEA826206FB60
:100FD00007FC42EA90124FEA80604FEA1C4C0CFB7F
:100FE0000BF7D21B03FB0CF761EB07010CFB0EF7B1
:100FF000B0EB074072EB17420CFB08F734BFA2EBD3
:101000000742B2EB074261EB17414FEA8C554FEABA
:10101000910704EB9C2406FB07FC4FEA1C4C0CFBDD
:101020000BF7B0EBC74072EB573203FB0CF734BF42
:10103000A2EBC742B2EBC74261EB57310CFB0EF794
:10104000B0EBC70072EB57720CFB08F734BFA2EB92
:10105000C702B2EBC70261EB577115EB4C254FEAA3
:10106000816141EA92114FEA82624FEAD13742EA46
:10107000901206FB07FC44F100044FEA80604FEA3F
:101080001C4C0CFB0BF7D21B03FB0CF761EB0701AD
:101090000CFB0EF7B0EB074072EB17420CFB08F7A6
:1010A00034BFA2EB0742B2EB074261EB174115EBED
:1010B0001C154FEA813141EA92414FEA823242EAFD
:1010C00090424FEA80304FEA0C7644F1000448EA3F
:1010D00003434EEA0B484FF0000EB2EB080C71EBE5
:1010E000030724BF624639464EEB0E0E4FF0000B4D
:1010F0000018524149414BEB0B0BB2EB080C71EB62
:1011000003077BF1000B24BF624639464EEB0E0EFF
:101110004FF0000B0018524149414BEB0B0BB2EB67
:10112000080C71EB03077BF1000B24BF62463946C4
:101130004EEB0E0E51EA020718BF46F0010616EB01
:101140000E7655F1000254F1000103D5BDE8890186
:10115000BDE80088BDE88901BDE80048B6195241E4
:1011600041EB0101A3F10103704780807F7E7D7C0C
:101170007B7A7978777676757473727171706F6E29
:101180006E6D6C6C6B6A6A696868676666656464D4
:10119000636362616160605F5F5E5E5D5D5C5C5B5E
:1011A0005B5A5A59595858575756565555555454CD
:1011B000535352525251515050504F4F4F4E4E4D2B
:1011C0004D4D4C4C4C4B4B4B4A4A4A494949484877
:1011D00048474747474646464545454444444443B7
:1011E00043434342424242414141002B9C4630D45A
:1011F00077002BD01CB54FEA370703B44FF010002F
:101200004FF01001BAF1000F06D0BCF1000FDCBFA7
:1012100040F0080040F008014FF000000FBCBDE8AE
:1012200010400BF1010BBBF1010F08BF5FEA17077C
:1012300022BF12F1010211F101014FF0004143F10F
:10124000000300F0004043EA00007047F9D357085C
:10125000D0E746EA064613F1400F4FEA16461FDD77
:1012600013F1200FDFBF16430A46002120335B42F3
:10127000BED0C3F1200746EA064602FA07F74FEA56
:10128000164646EA0706C3F1200722FA03F201FADE
:1012900007F721FA03F14FF0000342EA0702A7E73C
:1012A00046EA020646EA06464FEA164646EA0106BE
:1012B000BCBF46EA0646360C4FF000034FF0000272
:1012C0004FF0000194E72DE9804C9A46934670B4A4
:1012D00091E8380007C831EA400C48BF34EA430CB3
:1012E00003D5FFF7E6FDFFF780FFF0BCBDE8008CFB
:1012F0002DE9804C9A46934670B491E8380007C8AF
:1013000010F0804F08BF13F0804F03D100F005F8B4
:10131000FFF76BFFF0BCBDE8008C20F07F4780EA50
:10132000030023F07F4C07EB0C03A3F57C5300F084
:101330000040A3F1FE0392F0000F00F0B38095F09F
:10134000000F00F077802DE901494FEA11404FEA84
:10135000144621EA004800FB06FC24EA064708FB85
:1013600006F607FB08F800FB07F718EB06484CEBFE
:10137000164C4FEA124B18EB07484FEA15464CEB58
:10138000174022EA0B4E0BFB06FC25EA06470EFB34
:1013900006F607FB0EFE0BFB07F71EEB064E4CEBAB
:1013A000164C4FF000061EEB074E4CEB174B18EB9C
:1013B0000B0840F1000018EB0E0B58EB000840F151
:1013C00000008F1A4FF000013CBFC943661B14BFD9
:1013D000B5EB040C00213CBFC943F61B4FEA174490
:1013E0004EEA8E0E27EA04454FEA1C4704FB0762CB
:1013F0002CEA074C05FB07F70CFB05F604FB0CFC7D
:1014000016EB074642EB174216EB0C4642EB1C422A
:101410001BEB060658EB0202414146EA9E0601D547
:10142000BDE80189B619524141EB0101A3F1010365
:10143000BDE801894FEA14454FEA114724EA054601
:1014400021EA074C05FB07F406FB07F70CFB06F146
:1014500005FB0CFC11EB074144EB17444FEA124724
:1014600011EB0C4144EB1C4422EA074C05FB07F24C
:1014700006FB07F70CFB06F605FB0CFC16EB074614
:1014800042EB174216EB0C4642EB1C456A1854F12E
:10149000000148BF7047B619524141EB0101A3F169
:1014A0000103704795F0000F37D04FEA11424FEA21
:1014B000144721EA024624EA074C02FB07F106FB27
:1014C00007F70CFB06F402FB0CFC14EB074441EBA2
:1014D00017414FEA154714EB0C4441EB1C4125EA38
:1014E000074C02FB07F506FB07F70CFB06F602FBB1
:1014F0000CFC16EB074645EB174516EB0C4645EB87
:101500001C42121951F1000148BF7047B6195241EF
:1015100041EB0101A3F1010370474FEA14454FEA83
:10152000114724EA054621EA074C05FB07F106FBB3
:1015300007F70CFB06F24FF0000605FB0CFC12EB64
:10154000074241EB174112EB0C4251EB1C4148BFE3
:101550007047921841EB0101A3F1010370470000AD
:10156000464910B54A6822F440324A604A684368E6
:101570001A434A6001684A6822F480724A6001682E
:101580004A68036942EA03224A6001684A6822F015
:1015900040724A6001684A6883681A434A60016879
:1015A0008A6822F400628A6001688A68C3681A4304
:1015B0008A60816A6FF07062D14201688A6822F0A5
:1015C00070628A6001688A680CD0836A1A438A60F4
:1015D00001688A6822F040528A6001688A68C36A9A
:1015E0001A4301E022F040528A6001688A6822F0C2
:1015F00002028A6001688A68037E42EA43028A60C6
:1016000090F82010002901684A680FD042F4006267
:101610004A6001684A6822F460424A6001684A6888
:10162000174C436A04EB43331A4301E022F400628F
:101630004A600168CA6A22F47002CA620168CA6A12
:10164000838B104C04EB03531A43CA6201688A6807
:1016500022F400728A6001688A6890F8303042EAA9
:1016600043228A6001688A6822F480628A60016885
:101670008A68406942EA8020886010BD00230140EA
:1016800000E0FFFF0000F0FFFEE7000030B500EED5
:10169000101A324C0546B8EE400AD4ED150A01285E
:1016A00020EE200AD4ED160ABDEEC00A10EE102A74
:1016B00000EE101AB8EE400A20EE200ABDEEC00A75
:1016C00010EE103A01D0022D19D1A079B8B12348FB
:1016D00094ED100A643003F0D7FC2048B0EE402AA5
:1016E00094ED110A883003F0CFFCFDEEC20ABDEE86
:1016F000C00A10EE900A024410EE100A03444FF4A0
:10170000AF70824200DD0246834200DD0346C82AF4
:1017100000DAC822C82B00DAC8231149002465B1B9
:10172000012D11D0022D07D1086842630868846337
:101730000868C4630868036430BD086844630868C7
:1017400084630868C46305E00868446308688263CA
:101750000868C3630868046430BD0000000000200E
:10176000A0020020014800F0ADBA00008004002073
:10177000014800F0A7BA0000C0030020014800F0B3
:10178000A1BA0000E0040020014800F09BBA00006C
:101790002004002001681823CAB2103AB2FBF3F209
:1017A000054B6FF30901032A9B5CC36500D9091D32
:1017B0008165084670470000405F000810B501468B
:1017C00000208B698A6A4FF0C07453B1B3F5005F93
:1017D00015D072B1012A0CD0022A0AD0032A09D1ED
:1017E00004E01AB1012A06D0022A03D1C96AC9014C
:1017F00000D5012010BDC96AA142FAD010BD002A4F
:10180000F7D0012AF2D0022AF3D0032AF3D010BD78
:1018100030B50468256825F4802525600468636078
:101820008368402B036803D099600068C26030BDB4
:101830009A600068C16030BD704772B6FEE7000074
:1018400078B50024009490F83C20012A19D0012298
:1018500080F83C200A6807230568092A13D9EE6836
:101860000A3A02EB420293409E43EE600B788A688C
:101870000A3B03EB43039A400368DD682A43DA60BE
:1018800010E0022078BD2E6902EB420293409E4395
:101890002E610B788A6803EB43039A4003681D6945
:1018A0002A431A614A681F23072A13D205686E6B00
:1018B000521E02EB820293409E436E630A8893B2EB
:1018C0000A79521E02EB820293400268556B2B4349
:1018D000536327E005680D2A12D22E6BD21F02EB4C
:1018E000820293409E432E630B790A88DB1F92B2DB
:1018F00003EB83039A4003681D6B2A431A6311E0CC
:10190000EE6A0D3A02EB820293409E43EE620B793F
:101910000A880D3B92B203EB83039A400368DD6AA9
:101920002A43DA621B4B0568194A9D420AD10D68A9
:10193000122D07D1556825F400055560556845F40A
:101940008005556005689D421DD1134D0B68AB4263
:1019500001D0112B17D1536823F4800353605368CF
:1019600043F4000353600968A9420CD10B490C4AA7
:101970000968B1FBF2F101EB8101490000E0491E69
:1019800000910029FBD180F83C40002078BD000088
:10199000002301400020014012000010B800002088
:1019A00040420F000068C06C704770B504004FF0F3
:1019B000000503D0206C002610B107E0012070BDA7
:1019C000204600F01DF8666484F83C60206CC00678
:1019D00010D4206C20F4885040F00200206420468F
:1019E000FFF7BEFD6664206C20F0020040F00100AD
:1019F000206400E0012584F83C60284670BD0000AA
:101A000010B586B0044614216846FEF7B2FD1149B0
:101A1000206888421CD110480021026842F480727C
:101A20000260006800F4807005900B48143802686A
:101A300042F001020260006800F0010005900420FD
:101A400000900320CDE901016946044800F0BEFA88
:101A500006B010BD002001404438024000000240A2
:101A60002DE9F041044600680D4681684FF00007FB
:101A700049050BD58068C00508D5206C40F02000D2
:101A8000206484F83C700120BDE8F08100F092FBF6
:101A9000064613E0681C11D025B100F08BFB801BBB
:101AA000A8420BD920680068800707D4206C40F05A
:101AB0000400206484F83C700320E5E72068006897
:101AC0008007E7D521686FF012000860206C40F4B1
:101AD000007020642068816811F0405F13D1217E7E
:101AE00089B9C16A11F4700F02D0806840050AD428
:101AF000206C20F480702064206CC00403D4206C1F
:101B000040F0010020640020BEE7000018B500216D
:101B1000009190F83C20012A07D0012280F83C2057
:101B200002689368DB0702D011E0022018BD9368B9
:101B300043F0010393602E4A2E4B1268B2FBF3F27E
:101B400002EB420200E0521E0092002AFBD1026822
:101B50009368DB0742D0036C40F20164A34343F473
:101B60008073036453685B0505D5036C23F400534D
:101B700043F480530364036CDB0404D5436C23F00B
:101B80000603436400E0416480F83C101A496FF09A
:101B90002203136049680068CA06184906D08842C3
:101BA00024D1816811F0405F13D01FE08842F8D043
:101BB000134A904203D1D1F80423D206F1D0114A3E
:101BC000904213D1D1F8041301F01F011029E8D37A
:101BD0000CE0816841F08041816007E0016C41F0D8
:101BE00010010164416C41F001014164002018BD05
:101BF000B800002040420F000023014000200140B7
:101C000000210140002201402DE9F0410446876D8A
:101C100000F0D0FA064694F835000025022806D0D8
:101C20008020606584F834500120BDE8F081206890
:101C3000016821F0160101602068416921F08001EE
:101C40004161206C08B9A06C20B12068016821F0C6
:101C5000080101602068016821F0010101600CE0C9
:101C600000F0A8FA801B052807D920206065032012
:101C700084F8350084F83450D7E720680068C0073E
:101C8000EED194F85C103F208840B860012084F8C1
:101C9000350084F834500020C7E790F83510022949
:101CA00003D08021416501207047052180F835105F
:101CB0000068016821F0010101600020704790F880
:101CC000350070472DE9F84304464FF00009CDF880
:101CD000009063484FF41651A56D0068B0FBF1F712
:101CE0002E6894F85C10082000FA01F131420FD000
:101CF00021680A6852070BD50A6822F004020A60BC
:101D000094F85C108840A860606D40F00100606548
:101D100094F85C104FF0010808FA01F0304208D046
:101D200021684969090604D5A860606D40F0020089
:101D3000606594F85C1004208840304208D0216827
:101D40000968890704D5A860606D40F004006065EB
:101D500094F85C1010208840304218D0216809683F
:101D6000090714D5A86020680168490304D50068F4
:101D7000000308D5A16C07E00168C90503D4016818
:101D800021F008010160216C09B12046884794F8D0
:101D90005C1020208840304231D021680968C90693
:101DA0002DD5A86094F8350005282068016806D074
:101DB000490347D5006800031DD4616C1CE021F085
:101DC000160101602068416921F080014161206CA9
:101DD00008B9A06C20B12068016821F008010160F9
:101DE00094F85C103F208840A86084F8358084F81F
:101DF0003490216D1FE0E16B09B120468847606D8A
:101E000000282BD0606DC00714D0052084F8350061
:101E10002068016821F0010101600098401C0090D9
:101E2000B84203D820680068C007F6D184F835802E
:101E300084F83490E16C002910D001B02046BDE850
:101E4000F04308470168C905D5D4016821F01001A5
:101E5000016084F8358084F83490CCE7BDE8F883DD
:101E6000B80000202DE9F041044600F0A3F9064631
:101E70005CB1022084F83500002584F834502068D5
:101E8000016821F0010101600DE00120BDE8F08151
:101E900000F090F9801B052805D9202060650320FB
:101EA00084F83500F2E720680068C007F0D12268A6
:101EB000116820480140D4E901031843D4E90336EE
:101EC0003343184363691843A3691843E36918430C
:101ED000236A18430843616A042903D1D4E90B1328
:101EE00019430843106020684069666A20F00701C2
:101EF00030460E43012704280CD1A06A0643E06A4D
:101F000040B12046FFF75AFC20B14020606584F8BC
:101F10003570BAE7206846612046FFF73BFC94F82D
:101F20005C203F2191408160656584F83570002018
:101F3000ACE700003F8010F02DE9F0410446866DCB
:101F400090F83400002501280DD0012084F83400D9
:101F500094F835700020012F07D084F83400022552
:101F60002846BDE8F0810220FBE7022784F835709F
:101F700060652046FFF74CFC94F85C103F208840D9
:101F8000B0602068016841F016010160206C20B14A
:101F90002068016841F0080101602068016841F093
:101FA00001010160DCE7000070B5044600F002F9B1
:101FB0000546601C02D004480078044400F0FAF89A
:101FC000401BA042FAD370BDAC0000202DE9F84FB1
:101FD000DFF8ACA10022012403254FF00F090AF11C
:101FE000040BAAF1040E00BF0B6804FA02F633409A
:101FF000B3426ED10F7907F00307012F01D0022FF2
:1020000016D187684FEA420805FA08FC27EA0C0750
:10201000D1F80CC00CFA08FC4CEA070CC0F808C058
:102020004768B7430E79C6F3001696403E434660B4
:102030000E79F643B6070AD0C6684FEA420C05FA95
:102040000CF7BE438F6807FA0CF73743C7600E7969
:1020500006F00306022E10D1D60800EB8608D8F849
:10206000206057074FEAD76C09FA0CF7BE430F6997
:1020700007FA0CF73743C8F8207006684FEA420C9D
:1020800005FA0CF7BE430F7907F0030707FA0CF7C0
:10209000374307604E6816F4403F6BD0394E3768BF
:1020A00047F480473760366822F0030706F480461D
:1020B0000096354E07EB060CDCF8086897074FEAE8
:1020C000177809FA08F7BE43304FB84202D100270B
:1020D0001FE04FE02E4FB84201D1012719E02D4FEC
:1020E000B84201D1022714E02B4FB84201D1032797
:1020F0000FE02A4FB84201D104270AE0284FB84226
:1021000001D1052705E0274FB84201D1062700E09D
:10211000072707FA08F73743CCF80878DAF80060A1
:102120005746D1F804C09E435FEACC2C00D51E432D
:102130003E60DBF800605F46D1F804C09E435FEA72
:102140008C2C00D51E433E60DEF800607746D1F847
:1021500004C09E435FEA8C3C00D51E433E60084F9E
:10216000083F3E68D1F804C09E435FEACC3C00D5EE
:102170001E433E60521C102AFFF436AFBDE8F88FB4
:10218000083C014044380240003001400000024059
:102190000004024000080240000C0240001002400F
:1021A00000140240001802400AB18161704709041E
:1021B000FBE700000148806870470000AC00002089
:1021C000704770472DE9F041016804464A694E683E
:1021D00090F83E000025D743FA0506D4F243D20515
:1021E00003D46FF4807201254A61B90508D4F14324
:1021F000C90505D422686FF4007145F002055161EC
:10220000790525D4F143C90522D4638D94F83D1096
:10221000226B202808D13BB9212910D029290ED0C2
:10222000282901D1212A0AD022686FF480615161E6
:1022300045F00405102806D0402804D008E02046C8
:1022400002F07AFA04E02068016841F4007101604C
:10225000380508D4F043C00505D421686FF4006048
:1022600045F008054861002D07D0206C2843206404
:102270002046BDE8F04101F0FBBDBDE8F0812DE94D
:10228000F047026800215368C66A90F83E4090F813
:102290003D50102C12D0402C10D0046C002C7DD05E
:1022A0005469E443A6077AD4DE43B60577D4036CB9
:1022B00003B19169BDE8F04702F01ABA9769516914
:1022C0004FF42A0CC9435FEAC1784FF02A4904D081
:1022D00066452AD04E4528D010E0DE43B6050DD421
:1022E000C16A614501D1012103E0C16A494501D1BB
:1022F0000821C162BDE8F04702F08EB80E0716D47F
:10230000DE43B60513D4416CC9B21161416B09B10A
:10231000C96B29B9816B002907D0C96B002904D08A
:102320000068416841F400614160BDE8F0878E07B4
:1023300006D4DE43B60503D4BDE8F04701F0E0BFA4
:10234000FE43526876074FEA02521DD4002AECDBA6
:102350000A0608D4DA43520505D4490705D5BDE875
:10236000F04701F071BF4907DFD4D9438905DCD4B8
:10237000212D05D0402CD8D1BDE8F04702F092B80D
:10238000BDE8F04701F01EBF002ACEDB4A060BD4A1
:10239000DA43520508D4490708D501E00DE00EE004
:1023A000BDE8F04701F094BE4907BED4D943890582
:1023B000BBD4BDE8F04701F01EBE916970E7E106AD
:1023C00006D4D943890503D4BDE8F04702F0FCB92F
:1023D0002821212D27D0292D25D0650655D4DD4370
:1023E0006D0552D4640752D590F83D30448D002CD1
:1023F0009BD01269446A2270426A521C4262428D2A
:10240000521E4285428D002A8FD12A2B8DD102681F
:10241000536823F4806353602222026380F83D10E6
:1024200000F0F0FA81E7250623D4DD436D0520D4C2
:10243000640720D590F83D30448D002CF2D0446ADA
:1024400024781461426A521C4262428D521E4285B7
:10245000428D002AE6D1292BE4D10268536823F487
:10246000806353602122026380F83D1000F0CBFAB4
:102470005BE76107D6D4D9438905D3D4418D0029C0
:10248000D0D0416A097811610AE06107CAD4D94302
:102490008905C7D4418D0029C4D01169426A1170E1
:1024A000416A491C4162418D491E41853DE77047A3
:1024B00070B5040025D094F83D00002520B984F8BB
:1024C0003C50204600F058FA242084F83D00206853
:1024D000016821F0010101602068016841F40041B8
:1024E00001602068016821F40041016000F0FAFBFE
:1024F0004D4A6168914201D84C4900E04C498842FC
:1025000001D2012070BD4B492368B0FBF1F15E6838
:1025100026F03F060E435E606368934206D94FF48F
:10252000967359434FF47A73B1FBF3F12368491C56
:102530001E6A26F03F06314319626168914210D845
:102540004900401EB0FBF1F2521CC2F30B02042AF8
:1025500001D2042022E0B0FBF1F0401CC0F30B00DC
:102560001CE0A268F2B301EBC10303EB0116431EAA
:10257000B3FBF6F35B1C43F480431B0549D092B3D5
:1025800001EBC10202EB0111401EB0FBF1F0401C57
:10259000C0F30B0040F4804040F400402168CA6959
:1025A0004CF6FF739A431043C861D4E90710014306
:1025B0002068026822F0C00211430160D4E90301DF
:1025C00001432068826848F2FF339A4311438160D7
:1025D000D4E9050108432168CA6822F0FF021043CC
:1025E000C86001E00EE016E02068016841F00101DA
:1025F00001602564202084F83D00256384F83E5066
:10260000002070BD01EB4106431EB3FBF6F35B1CDB
:10261000B3E70120C2E701EB4101401EB0FBF1F03E
:10262000401CC0F30B00B7E7A086010080841E00A9
:1026300000093D0040420F007047704770477047E7
:10264000704700002DE9FF4F83B09A46DDE91187FE
:1026500093460446DDF84090FFF7ACFD054694F83C
:102660003D00202870D1192301227449204600958D
:1026700002F084F90028F5D194F83C00012863D0D9
:10268000012084F83C0020680168C90703D1016873
:1026900041F0010101602068016821F400610160DE
:1026A000222084F83D00402084F83E000026266465
:1026B000C4F82490A4F82A80608D20856048E062E8
:1026C000CDE9007553465A462046049901F03EFF75
:1026D000002879D1208DD0B1012821D0022820688E
:1026E00024D0416980690090208D032866D8012894
:1026F0002BD0544902283B464FF00002009557D09A
:102700008846204602F03AF900285DD13AE0206878
:10271000416981690091016841F4007101607DE0C7
:102720002068016821F480610160F0E7016821F40C
:10273000806101602068016841F4006101602068E7
:1027400041698069009069E075E02A463946204673
:1027500002F0BAF988BB54E02068016841F40071C6
:10276000016020680069616A0870606A401C6062EC
:10277000218D491E2185618D491E61852168096968
:10278000017042E02068016821F4806101602068E6
:102790000069616A0870606A401C6062208D401E9A
:1027A0002085608D401E60853B4600224146009595
:1027B000204602F0E3F800B9CEE705E02A463946A4
:1027C000204602F081F918B1012007B0BDE8F08F72
:1027D00020680069616A0870606A401C6062208D30
:1027E000401E81B22185608D401E6085206842694F
:1027F000D243520712D4032903D1016821F4806126
:10280000016020680069616A0870606A401C60624B
:10281000208D401E2085608D401E6085208D002803
:102820007FF462AF202084F83D0084F83E6084F895
:102830003C600020C9E70220C7E70000020010004A
:102840000000FFFF040001002DE9FF4F83B09A460E
:10285000DDE9119793460446DDF84080FFF7AAFCB6
:10286000054694F83D0020287FD1192301224049D4
:102870002046009502F082F8002876D194F83C00BA
:10288000012872D0012084F83C0020680168C90743
:1028900003D1016841F0010101602068016821F461
:1028A00000610160212084F83D00402084F83E0052
:1028B00000262664C4F82480A4F82A90608D208520
:1028C0002C48E062CDE9007553465A4620460499EB
:1028D00001F0BAFE70B930E02A463946204602F0CF
:1028E0002BF958B1206C042804D12068016841F408
:1028F00000710160012007B0BDE8F08F606A2168B7
:1029000000780861606A401C6062218D491E89B2AE
:102910002185628D521E628522685369DB435B0705
:102920000BD469B100781061606A401C6062208D30
:10293000401E2085608D401E6085208D0028CBD1F3
:102940002A463946204601F0EDFF0028CAD154F846
:102950003D0B016841F400710160202004F81E095C
:10296000E67766770020C6E7FFE70220C3E70000AE
:10297000020010000000FFFF10B586B004461421CD
:102980006846FDF7F6FD1C492068884231D11B4896
:102990000021026842F002020260006800F00200BA
:1029A00005904FF4407000901220CDE90101032002
:1029B00003900420049069461148FFF707FB0F4875
:1029C0001030016841F4001101600068002200F439
:1029D0000010059011461F2000F080F81F2000F025
:1029E0006FF800221146202000F078F8202000F037
:1029F00067F806B010BD00000054004030380240B7
:102A00000004024070477047024881680278114410
:102A100081607047AC0000200B4810B5016841F49C
:102A200000710160016841F480610160016841F456
:102A300080710160032000F071F8002000F006F8BA
:102A400000F024F8002010BD003C024070B50D4D90
:102A500004464FF47A712878B1FBF0F00A4909680E
:102A6000B1FBF0F000F074FB48B9102C07D2002243
:102A70002146501E00F032F800206C6070BD01202D
:102A800070BD0000AC000020B80000200B4882B0F0
:102A9000016841F480410160006800F480400090CA
:102AA0000648001F016841F080510160006800F095
:102AB00080500090072002B000F030B84438024047
:102AC000002809DB00F01F0201219140400980002D
:102AD00000F1E020C0F8001170470000F0B40E4B88
:102AE0001B680C46C3F30223C3F10705042D00D96C
:102AF0000425191D072901D2002300E0DB1E012651
:102B000006FA05F1491E214099409E40761E164066
:102B10003143F0BC02F09DBF0CED00E0064900F02F
:102B2000070208684FF6FF03184040EA0220034AF4
:102B300010430860704700000CED00E00000FA054B
:102B40002DE9F8431748016841F0805101600068A1
:102B5000154F00F08050012600903E64FFF72AFBDD
:102B600005464FF47A78114C05E000BFFFF722FBD1
:102B7000401B40450DD86068C003F7D57E64FFF761
:102B800019FB0546464607E0FFF714FB401BB04221
:102B900002D90320BDE8F88360688003F4D50020E3
:102BA000F8E700004038024000000E42007000408C
:102BB0002DE9F0470E46050065D0DFF81481D8F8FE
:102BC0000000F7B200F00F00B04207D288F80070A2
:102BD000D8F8000000F00F00B04254D128683D4CF6
:102BE000810712D5400703D5206840F4E0502060EB
:102BF0002878000703D5206840F4604020602068F2
:102C0000A96820F0F000084320602878C0072DD084
:102C1000304968680839012812D0022813D00328E7
:102C200011D00968890700292DDA216821F00301F4
:102C300001432160FFF7BEFA814641F2883A0EE077
:102C400009688903EFE709688901ECE7FFF7B2FA41
:102C5000A0EB0901514502D90320BDE8F0872068A7
:102C6000696800F00C00B0EB810FEFD1D8F80010CC
:102C7000404601F00F01B14207D90770006800F02B
:102C80000F00B04201D00120E7E72878400705D5C2
:102C90002068E96820F4E0500843206028780007A5
:102CA00006D52068296920F4604040EAC100206010
:102CB00000F038F82168084AC1F30311515CC8409C
:102CC0000649086006480068FFF7C0FE0020C4E718
:102CD000003C024008380240485F0008B80000206D
:102CE000B00000200448054900680968044AC1F39F
:102CF0008221515CC8407047B8000020083802406B
:102D0000585F00080448054900680968044AC1F38F
:102D10004231515CC8407047B8000020083802407A
:102D2000585F0008224810B5006810F00C022148D6
:102D300015D04110042A11D01D4C241F082A0FD091
:102D40000C2A0CD12268236802F03F025B0221D5D5
:102D50002068C0F38810A0FB010120E0084610BDE8
:102D60002268236802F03F025B0205D52068C0F3A9
:102D70008810A0FB010104E02168C1F38811A1FBC8
:102D800000010023FDF79EFA2168C1F30141491CAF
:102D900049000AE02168C1F38811A1FB000100236A
:102DA000FDF790FA2168C1F30271B0FBF1F010BD9C
:102DB000083802400024F4002DE9F84F04007DD0CB
:102DC000DFF878B32078ABF10407C007A7F104055A
:102DD00050D0DBF800105846C1F3810101290FD013
:102DE0000168C1F38101022902D13968490207D47F
:102DF0000068C0F38100032809D13868400206D575
:102E00002868800336D560680028D8D032E0606832
:102E1000B0F5803F10D0B0F5A02F286810D020F476
:102E200080302860286820F4802028606068A0B185
:102E3000FFF7C0F906460CE0286840F48030F4E75C
:102E400040F480202860F7E7FFF7B4F9801B64287E
:102E500076D828688003F7D50CE0FFF7ABF9064673
:102E600005E000BFFFF7A6F9801B6428F0D82868AA
:102E70008003F7D42078DFF8C89280074FF0000A6B
:102E800044D5DBF80010584611F00C0F0FD0016844
:102E9000C1F38101022902D13968490207D50068CE
:102EA000C0F3810003280AD13868400207D428689B
:102EB000800715D5E068012800D111E03AE1E0680B
:102EC000B0B10120C9F80000FFF774F9064604E02C
:102ED000FFF770F9801B0228BAD828688007F7D559
:102EE0002868216920F0F80040EAC10028600DE060
:102EF000C9F800A0FFF75EF9064604E0FFF75AF9AB
:102F0000801B02281CD828688007F7D42078000787
:102F100027D5DFF828828B48616908F16C0881B1F8
:102F200001210160FFF746F9064604E0FFF742F988
:102F3000801B022804D8D8F800008007F6D510E0DE
:102F400089E0C0F800A0FFF735F9064605E000BFAC
:102F5000FFF730F9801B02287DD8D8F800008007E1
:102F6000F6D42078400769D574484FF0000838300F
:102F70000068C0000BD471483830016841F08051BE
:102F8000016000684FF0010800F0805000906E4E24
:102F90003068C00511D4306840F480703060FFF7AD
:102FA00009F9009006E000BFFFF704F90099401A04
:102FB000022850D83068C005F6D5604EA068683643
:102FC00001280FD00528306810D020F001003060B3
:102FD000306820F004003060A068B8B1FFF7EAF86C
:102FE00000900FE0306840F00100F4E740F004008A
:102FF0003060F7E7FFF7DEF80099411A41F28830B8
:10300000814264D830688007F4D50EE0FFF7D2F82B
:10301000009007E0FFF7CEF80099411A41F288309E
:10302000814254D830688007F4D4B8F1000F05D03D
:1030300042483830016821F080510160A069A8B38E
:10304000DBF80010C1F38101022947D00228C9F83A
:1030500060A005D000E03AE0FFF7ACF8044639E0A4
:10306000FFF7A8F8064604E0FFF7A4F8801B022843
:103070002DD828688001F7D4F4E907010843E168F6
:10308000324A490802EB0141A26841EA8211084331
:10309000217C40EA0160217D40EA01703860012016
:1030A000C9F86000FFF786F8044606E044E000BF78
:1030B000FFF780F8001B022809D828688001F7D59F
:1030C0003AE000BFFFF776F8001B022802D9032080
:1030D000BDE8F88F28688001F4D42DE00128F7D0EE
:1030E0003868E26900F48001914223D1226A00F03D
:1030F0003F0191421ED147F6C071626A0140B1EBB7
:10310000821F17D1A26A4FF0FF3300F4403103EB66
:103110005202B1EB024F0DD194F82C2000F07061F7
:10312000B1EB026F06D194F8301000F0E040B0EB44
:10313000017F01D00120CBE70020C9E70838024019
:1031400000004742800E4742007000400000FFFF31
:1031500010B5401EB0F1807F01D3012010BD4FF0AB
:10316000E02460610F21601702F073FC0020A06171
:1031700007202061002010BD70B590F83C20012A86
:1031800032D0012480F83C40022280F83D200368C0
:103190005A689D6822F070060A6832435A60134BE1
:1031A00002689A4214D0B2F1804F11D0104B9A426B
:1031B0000ED0104B9A420BD00F4B9A4208D00F4BB7
:1031C0009A4205D00E4B9A4202D00E4B9A4204D13D
:1031D000496825F080031943916080F83D40002143
:1031E00080F83C10084670BD022070BD0000014010
:1031F0000004004000080040000C004000040140B2
:1032000000400140001800402DE9F0410D46040047
:1032100003D094F83D0018B108E00120BDE8F0812A
:10322000002084F83C00204600F040F8022084F89A
:103230003D002068816844F2070291438160211DAE
:10324000206802F023F8226890689169166A2B685A
:10325000AF69034340F20330814341EA0721A86884
:10326000EF6908434FF6FC418843E96840EA0720CC
:10327000014328692F6A000140EA07300843696862
:103280006D6926F0AA0646EA05152943936022686F
:10329000906154F8460B0162012004F81F09E075A3
:1032A0002076E0762077A0750020B7E730B587B0AC
:1032B000044614216846FDF75CF921482468002281
:1032C0001F4910380223B4F1804F1FD01D4DAC426E
:1032D0001AD10C6844F004040C60096801F0040180
:1032E0000591016841F0020101600068694600F043
:1032F00002000590C0200090CDE901321248CDE9CE
:10330000032300BFFEF762FE07B030BD0C6844F037
:1033100001040C60096801F001010591016841F0A8
:10332000010101600068694600F00100059003207A
:103330000090CDE901320120CDE903200348E1E707
:1033400040380240000800400004024000000240F3
:1033500070B590F83E60044690F83F5090F84230C7
:1033600090F84320022021B104290ED0012E1BD158
:1033700014E0012E18D1012B16D184F83E0084F8F8
:10338000420001220021206820E0012D0CD1012AF9
:103390000AD184F83F0084F8430014E0012D03D1E2
:1033A000012B01D1012A01D0012070BD84F83E001B
:1033B00084F83F0084F8420084F843000122002191
:1033C000206801F0CBFF01220421206801F0C6FF34
:1033D0002068016841F001010160002070BD00001B
:1033E00030B587B0044614216846FDF7C2F8164987
:1033F0002068884226D115480024016841F0010167
:103400000160016801F001010591016841F00201CC
:1034100001600068022500F002000590C0200090C5
:10342000CDE9015469460A48CDE90345FEF7CEFDD2
:1034300003200090CDE9015469460648CDE90345D3
:10344000FEF7C4FD07B030BD000400403038024034
:10345000000002400004024070B5044690F83C00B1
:1034600000260D4601280FD0012084F83C006AB1E7
:10347000042A1DD0082A2FD00C2A3FD00126002074
:1034800084F83C00304670BD022070BD206801F019
:1034900073FF2068816941F00801816120688169BA
:1034A00021F004018161206881692A69114311E0DA
:1034B000206801F091FF2068816941F40061816119
:1034C0002068816921F480618161206881692A69AD
:1034D00041EA02218161D2E7206801F0B3FF206850
:1034E000C16941F00801C1612068C16921F004018E
:1034F000C1612068C1692A69114311E0206801F0A7
:10350000D5FF2068C16941F40061C1612068C169CB
:1035100021F48061C1612068C1692A6941EA022100
:10352000C161ACE710B5040003D094F83D0010B1C0
:1035300007E0012010BD002084F83C00204600F088
:103540001FF8022084F83D00211D206801F09EFE36
:10355000012084F8460084F83E0084F83F0084F897
:10356000400084F8410084F8420084F8430084F865
:10357000440084F8450084F83D00002010BD0000A0
:1035800008B500680649884208D10648016841F03C
:1035900002010160006800F00200009008BD000018
:1035A000000400404038024010B50446022249B1F0
:1035B00004290ED0082913D094F84100012816D010
:1035C000012010BD94F83E000128F9D184F83E2076
:1035D0000FE094F83F000128F2D184F83F2008E082
:1035E00094F840000128EBD184F8402001E084F8F1
:1035F00041200122206801F0B1FE16492068164AD8
:10360000884201D0904203D1436C43F400434364A9
:103610002068884213D0B0F1804F10D00F49884203
:103620000DD00F4988420AD00E49884207D09042F7
:1036300005D00D49884202D00C49884204D18168E6
:1036400001F00701062903D0016841F00101016082
:10365000002010BD000001400004014000040040B3
:1036600000080040000C00400040014000180040ED
:1036700070477047F8B5016804460868CA684B6926
:1036800010F00F0F4FF0000559D003F0010602F4BF
:103690009077374365D0C10705D0D10503D5616C5C
:1036A00041F001016164410705D5D90703D0616C80
:1036B00041F002016164810705D5D90703D0616C2F
:1036C00041F004016164010707D502F02001314394
:1036D00003D0616C41F008016164616C00293AD04B
:1036E000800604D5900602D5204601F0BAFF206876
:1036F0004069616CC0F38010090700D460B32046B4
:1037000001F07AFF20684069400621D52068143016
:1037100050E8001F21F0400140E80012002AF5D1D6
:10372000E06BA8B172490165E06BFEF7B6FA0028BC
:1037300011D0E06B016D01B0BDE8F0400847830691
:103740000FD593060DD52046BDE8F84001F089BF9E
:103750002046FFF78EFFF8BD2046FFF78AFF65641D
:10376000F8BD266B2023012E7ED1C6067CD5D60659
:103770007AD508684868009048694FF0020640060C
:103780004DD5E26B106840684FF480770004000C60
:103790003AD0A18D814237D9E085D069B8422DD089
:1037A00020680C3050E8001F21F4807140E80012BE
:1037B000002AF5D12068143050E8001F21F00101E3
:1037C00040E80012002AF5D12068143050E8001FAC
:1037D00021F0400140E80012002AF5D184F842307F
:1037E000256320680C3050E8001F21F0100140E8EC
:1037F0000012002AF5D1E06BFEF706FA6663A08D91
:10380000E18D401A81B206E0A18D8142A8D1D06934
:10381000B842A5D166632046FFF72AFFF8BDA08D08
:10382000E18D401A81B2E08D0028F7D00029F5D053
:1038300020680C3050E8002F22F4907240E80027F6
:10384000002FF5D12068143050E8002F22F001023B
:1038500040E80027002FF5D184F842302563206826
:103860000C3050E8002F00E006E022F0100240E8A3
:103870000023002BF3D1CDE705062BD5150629D55E
:1038800094F841002128C9D1A068B0F5805F01D12A
:103890002069B0B1206A411C21622168007848602B
:1038A000E08C401E0004000CE084B7D12068C168A1
:1038B00021F08001C1602068C16841F04001C16011
:1038C000F8BD206A0088C0F308004860206A801CA8
:1038D0002062E5E74006F3D55006F1D5CA682046D8
:1038E00022F04002CA6084F8413000F006FAF8BDC8
:1038F000FD54000870B5040004D094F84100002580
:1039000010B106E0012070BD84F84050204600F060
:1039100023F8242084F841002068C16821F4005174
:10392000C160204601F0FEFE2068016921F490414B
:1039300001612068416921F02A0141612068C16864
:1039400041F40051C1606564202084F8410084F88E
:1039500042006563002070BD2DE9F04387B0044646
:1039600014216846FCF705FE5548DFF850C11438AD
:103970002768534902220323002506154FF040090A
:1039800067454FD10F6847F010070F60096801F0D5
:1039900010010591016841F001010160006869466C
:1039A00000F00100059058028DE825000720CDE9C0
:1039B00003304448FEF70AFB444F43484FF0006889
:1039C0003860C7E90185C7E903567D61BD61FD61C6
:1039D0003D6238467D62FEF745FA08B1FDF72DFFDE
:1039E000E763BC63394F384860377830C7E903561E
:1039F0007D61BD61FD613D627D6287E801033846FE
:103A0000FEF730FA08B1FDF718FFA7630022114650
:103A10002520BC63FFF762F82520FFF751F807B0B7
:103A2000BDE8F083DFF8A8C06745F8D10F6847F01C
:103A300020070F60096801F020010591016841F03D
:103A4000040101600068694600F004000590C02090
:103A50008DE825000820CDE903301E48FEF7B6FAB0
:103A60001A4F1948C037183838604FF02068C7E936
:103A70000185C7E903567D61BD61FD613D62384640
:103A80007D62FEF7EFF908B1FDF7D7FEE763BC638F
:103A9000114F0D48C7E903567D61BD61FD613D626F
:103AA00060307D6287E801033846FEF7DBF908B134
:103AB000FDF7C3FEA763BC63B1E70000001001403F
:103AC000443802400000024040640240C00300202D
:103AD0000014014000080240E004002090F8423049
:103AE000202B01D00220704721B11AB100230363BB
:103AF00001F09EBE0120704790F84230202B01D08B
:103B00000220704721B11AB10023036301F0E0BE27
:103B10000120704770B5464988427CD1454C01224E
:103B2000E07800B9E2704349A07A0B3123780B5456
:103B3000401CC0B2A07202285BD1087800254978E9
:103B4000431EA572032B54D8607040B101280FD0DA
:103B500002280DD0032826D0042824D049E065612E
:103B6000E5710021A5710846FDF790FDA57040E0C4
:103B7000A0704FF4AF732563636100EE101A9FEDE0
:103B80002E1AA271B8EE400AC0EE010A9FED2B0A70
:103B900020EE800ABCEEC00A10EE101AE16300218C
:103BA000FDF774FD25E000EE101ADFED250A9FED0C
:103BB000251AB8EE400A25494FF49672032860EEA4
:103BC000200A80EE810AF2EE0A0A20EE200A84ED35
:103BD0000D0A9FED1D0A84ED0E0A0B6810D0042615
:103BE000E6715D630B689A630B68DD6309680A64BC
:103BF000A070BDE8704001220E490D48FFF77CBF60
:103C00000326E6715A630B689D630B68DA630968E3
:103C10000D64EDE7FFE70E49884207D1BDE870402B
:103C20004FF480720B490A48FFF758BF70BD00007F
:103C30003003002000000020D3D2D23E4E93B34187
:103C4000DA0F49400000344300000000A0020020C9
:103C500078030020BC00002070472DE9F84304469B
:103C600090F84100984616460D46202802D00220C2
:103C7000BDE8F88385B17EB100206064212084F81E
:103C80004100FEF797FAA6848146E684A0682027C3
:103C9000B0F5805F02D003E00120E9E7206910B1B0
:103CA0002E4600250EE000260CE08021204601F083
:103CB0002AFEA8B9C6B116F8010B21684860E08C4D
:103CC000401EE084E08C4B464FF00002CDF80080AF
:103CD0000028EAD14FF04001204601F014FE40B127
:103CE00084F841700320C3E735F8020BC0F30800E5
:103CF000E3E784F841700020BAE7704700EE900ACD
:103D000001EE101A10B5F8EEE00AB8EEC11A9FEDF8
:103D10001A0A1A4CF0EEE00AB0EEC11A60EE800A00
:103D200021EE000AE079032801D0042823D130EEE7
:103D3000800A134910EE100A884202DB94ED0E0A45
:103D400005E0D4ED0E0A30EE800A84ED0E0AD4EDC3
:103D50000D0AB4EEE00AF1EE10FA0CDB0020E0717F
:103D60006070A0700146FDF791FC9FED060A84ED9E
:103D70000E0A84ED0D0A10BD4C36CF3C0000002029
:103D80000000204100000000FEE700000148FEF7AF
:103D900019BA0000040200200148FEF770BA0000C2
:103DA0000402002038B5806B002190F83D202B4B99
:103DB00046F2A8141B68B3FBF4F3C3EBC30303EB95
:103DC000830300933BB15B1E009303681B689B0554
:103DD00005D5009BF6E7036C43F020030364436BB7
:103DE00003B1D963836B03B1D96303681C6824F4FE
:103DF00080641C604185436B03B11965836B03B11B
:103E0000196503681C6824F001041C6090F83D40AB
:103E10002023602C0BD0282434EA02020FD080F833
:103E20003D3080F83E1000BFFEF741FB38BD80F802
:103E30003D3080F83E100164FEF7C2F938BD0268DB
:103E4000136843F0010313600268136843F480634E
:103E50001360016380F83D40E6E70000B8000020F1
:103E600000684169C943090601D400210161704716
:103E700070B5044690F83D0094F83E10102901D02A
:103E8000402906D1222804D121680A6822F4006260
:103E90000A60282131EA00024FF000054FF02006A9
:103EA00026D021684968090505D4602803D084F824
:103EB0003D6084F83E50256320684168090537D588
:103EC000416821F400614160606B90F835203C4905
:103ED000012A11D00165606BFDF7DFFE38B3206861
:103EE000016821F00101016084F83D60606B1CE015
:103EF000256384F83D10DFE7A06B0165A06BFDF73B
:103F0000CCFEA0B120684169C943490605D40069C7
:103F1000616A0870606A401C60622068016821F074
:103F20000101016084F83D60A06B016D884710E0DD
:103F300094F83D10602910D04169C943490605D461
:103F40000069616A0870606A401C60622046FEF782
:103F5000AEFA206CC1071CD115E084F83D602564E1
:103F60004169C943490605D40069616A0870606AFD
:103F7000401C60622068016821F001010160204658
:103F8000FEF71EF9E5E7810703D4410701D40007D6
:103F900004D52068416821F4E061416094F83D0057
:103FA000216C49070BD5282809D10648E062256312
:103FB00084F83D6084F83E502046FEF73DFB70BD1E
:103FC000A53D00080000FFFF01684A69D243520581
:103FD0000FD46FF480624A61002140F8301F202224
:103FE00042738173026942F004020261017301208D
:103FF00070470020704710B5C26A438D0168042BDA
:1040000006D0438D032B08D0438D022B1DD012E028
:104010004A6822F480624A600CE04B6823F48063B3
:104020004B60042A06D0022A04D001680A6822F4F0
:1040300080620A6001680969426A1170416A491C1C
:104040004162418D491E418510BD012A34D0102A9C
:1040500032D0042A34D0022A32D00B6843F40073E1
:104060000B6001680969436A1970416A491C416221
:10407000438D5B1E438503681B690B70416A491CB5
:104080004162418D491E418501684B6823F44073AC
:104090004B60202180F83D1090F83E300021402BED
:1040A00080F83E1010D0082A02D0202A00D0122119
:1040B0000163FEF7C2FA10BD0B6823F48063CFE7FB
:1040C0000B6843F48063CBE70163FEF7B8FA10BDD9
:1040D00038B590F83D10222910D1C36A418D0329CB
:1040E0000DD901680969426A1170416A491C41622F
:1040F000418D491E4185418D032906D038BDC26AD4
:10410000022A02D0012906D029B10068416821F4B1
:104110008061416038BD2A4A46F2A8140021126825
:10412000B2FBF4F202EB8202009202682024009DAE
:104130006D1E009526D01568AD05F8D4156825F4D8
:10414000806515600268556825F4E0655560026871
:104150001269456A2A70426A521C4262428D521E9E
:10416000428580F83D4090F83E2080F83E10402A7D
:1041700021D0082B02D0202B00D012210163FEF7A2
:104180005CFA38BD036C43F020030364536823F4E6
:10419000E063536002681269436A1A70426A521CF3
:1041A0004262428D521E428580F83D4080F83E10AA
:1041B000FEF77DF938BD0163FEF741FA38BD000016
:1041C000B800002010B5C26A90F83D1021290BD12B
:1041D000418D51B1416A026809781161416A491CF7
:1041E0004162418D491E418510BD20230021082ACE
:1041F00013D0202A11D012F5803F0ED002685468E7
:1042000024F4E06454601122026380F83E1080F8C8
:104210003D3000BFFEF712FA10BD0268546824F466
:10422000E06454600268146844F40074146001632C
:1042300080F83D3090F83E2080F83E10402AE9D1C9
:10424000FEF7FEF910BD000010B590F83D1090F893
:104250003E30C26A048DB4B1212903D0402B11D164
:1042600022290FD1418DE1B390F83E10402942D070
:10427000416A026809781161416A491C4162418DB5
:10428000491E418510BD2129E8D120230021082A9B
:1042900013D0202A11D012F5803F0ED00268546846
:1042A00024F4E06454601122026380F83E1080F828
:1042B0003D3000BFFEF7C2F910BD0268546824F417
:1042C000E06454600268146844F40074146001638C
:1042D00080F83D3090F83E2080F83E10402AE9D129
:1042E00000E002E0FEF7ACF910BD0068416821F47F
:1042F0008061416010BDBDE8104000F0D3B80000FF
:1043000078B590F83E50C26A036B90F83D60002487
:104310000168222E7AD1066D0EB9402D76D0056D3A
:104320001DB90569B5F5404F09D0458D05B3468DDA
:10433000384D012E0ED0438D022B3AD05DE04A69F4
:104340008A6900920A6842F480720A60016D491C11
:10435000016578BDAA4213D10A6822F480620A601E
:1043600001684A68120503D50A6822F4806216E0E3
:104370004A698A6900920A6842F400720A6039E068
:10438000082A10D0202A0ED0122B0AD0042A03D0DB
:10439000022A01D0102AE7D10A6842F480620A603A
:1043A00024E0012AE0D00A6822F480620A600168F1
:1043B000DEE7042A21D0022A1FD0102A1DD00B6864
:1043C00023F480630B6001680B6843F400630B60A7
:1043D00001684B681B0509D5AA4212D0012A10D0EA
:1043E000082A0ED0102A0CD0202A0AD001684A6967
:1043F00089690091046578BD08E00B6843F4806327
:10440000E5E74A6842F480524A60EFE74869886904
:104410000090F0E70000FFFF90F83E10402910D018
:104420000169B1F5804F19D0016DA9B3016D012962
:1044300010D1416C5FF0F10201F4407142EAD111F8
:1044400006E0016D0029416C05D0C9B241F00101BF
:1044500000680161704701F0FE01F9E790F83D1036
:104460002129416C09D0C9B241F0010102681161F2
:10447000416B29B1C96B49B902E001F0FE01F5E7D2
:10448000816B0029E6D0C96B0029E3D00068416840
:1044900041F4006141607047FFE7416CF02201F494
:1044A0004071CBE710B590F83D10026D4AB1026D36
:1044B000012A14D0026D022A16D0BDE81040FFF781
:1044C000CFBCC16C0129816C02D0C1F3072108E087
:1044D0000268C9B21161016D891C016510BD816C52
:1044E000C9B20268116123E022291CD0428D0AB1B1
:1044F000212920D0428D002AF0D12129EED1016856
:104500004A6822F4E0624A6001680A6842F4007274
:104510000A6000210163202280F83D2080F83E10CF
:10452000FEF78EF810BD01680A6842F480720A60D6
:10453000016D491CD1E7416A026809781161416A3D
:10454000491C4162418D491E418510BD2DE9F84F3E
:104550000446006889460B9D01689846174641F459
:10456000806101602068016841F4807101600095FC
:104570004FF0011B0022594620460A9B00F0FEF92D
:104580004FF4007A40B120680068C00501D5C4F836
:1045900040A00320BDE8F88F216809F0FE00086103
:1045A0002B46284920460A9A00F030FAF0BB2068D2
:1045B0004169806900902A4620460A9900F0BCFAB9
:1045C00040B1206C04283AD12068016841F40071A0
:1045D000016034E0FEB2B8F1010F09D02168380A59
:1045E00008612A4620460A9900F0A6FA0028E8D178
:1045F000206806612A4620460A9900F09DFA0028A4
:10460000DFD12068016841F48071016000950022CB
:10461000594620460A9B00F0B1F90028B3D1216821
:1046200009F0FF0040F00100086100E007E02B46C0
:10463000044920460A9A00F0E9F90028AAD001208E
:10464000A8E70000020001002DE9F84304460068D5
:104650000D46DDE9089701689846164641F48071D9
:1046600001604B4600224FF001112046009700F0F8
:1046700085F948B120680068C00502D54FF4007084
:1046800020640320BDE8F883216805F0FE0008617E
:104690003B464A461549204600F0B8F988B92068DB
:1046A0004169806900903A464946204600F044FA44
:1046B00048B1206C042804D12068016841F40071DD
:1046C00001600120DEE7F5B2B8F1010F09D02168E1
:1046D000300A08613A464946204600F02DFA002883
:1046E000E7D1206805610020CCE70000020001004E
:1046F00038B50C4690F83D200021282595430268E6
:104700000B4605D051699169009180F83C3038BD65
:10471000556825F480655560E243540700D50121B2
:10472000120601D5828900E0028B80F83C3092B2FB
:10473000FDF747FD38BD00002DE9F04190F83D3010
:104740000446C26A002120261E4F00686FF480656F
:10475000082A01D0202A01D1282B04D0212B17D0E0
:104760004561BDE8F081E762426822F4E0624260A0
:10477000206845612068026822F48062026021633B
:1047800084F83D6084F83E102046FDF755FFE8E7C9
:10479000E7622122226384F83D6084F83E1041687C
:1047A00021F4E0614160206845612068016821F4DE
:1047B000806101602046FFF753FB2046FEF723F996
:1047C000CFE700000000FFFFF8B590F83D60044619
:1047D0000068416821F4E06141602068002541697A
:1047E0000091016841F0010101602068016821F435
:1047F0008061016020684168090520D5474F222E5D
:1048000048D02A2E46D0616B096849686185618D60
:1048100019B1216C41F004012164416821F4006167
:104820004160606BFDF74BFA012808D0606B0765AB
:10483000606BFDF732FA10B1606B016D8847608DD7
:1048400008B320684169C943490708D40069616A0F
:104850000870606A401C6062608D401E6085206840
:104860004169C943490608D40069616A0870606AF1
:10487000401C6062608D401E6085608D18B1206CA8
:1048800040F004002064206C00B32046BDE8F840EE
:10489000FFF7EEBAA16B096849686185618D19B1AE
:1048A000216C41F004012164416821F40061416000
:1048B000A06BFDF704FA0128C1D0A06B0765A06BBF
:1048C000FDF7EBF90028BAD0A06BB6E72A2E06D187
:1048D0002563282084F83D002046FEF793F894F8DD
:1048E0003D10202028290DD0216B222901D0222E15
:1048F00007D1256384F83D0084F83E502046FEF73A
:1049000081F8F8BD0649E162256384F83D0084F82A
:104910003E502046FDF790FEF8BD0000A53D000882
:104920000000FFFF70B516460D4604461EE0204607
:10493000FFF74AFB08B1012070BD681C16D0FDF7D7
:1049400039FC801BA84200D885B920684069C04363
:1049500040070BD5002044F8300F20216173A0736D
:10496000216941F0200121612073E4E7206840695A
:10497000C0434007DBD4002070BD00002DE9F047A4
:10498000984617460D460446C1F30746DDF82090C9
:104990002AE000BFB8F1FF3F26D0FDF70BFCA0EBEB
:1049A0000901414502D8B8F1000F1DD12068012E40
:1049B00016D0806925EA00000004000C12D0002007
:1049C000B84211D1002044F8300F20216173A07348
:1049D000216941F02001216120730120BDE8F087A9
:1049E0004069E7E70120EBE72068012E0AD08069E3
:1049F00025EA00000004000C06D00020B842C9D00F
:104A00000020EBE74069F3E70120F7E72DE9F047E5
:104A1000984616460D4604464FF000094FF0200A0E
:104A2000C1F3074723E020684069C043400515D41F
:104A30002068016841F40071016021686FF48060B2
:104A40004861C4F8309084F83DA084F83E90216C11
:104A500041F00401216484F83C9021E0701C06D0F0
:104A6000FDF7A8FBA0EB0800B04203D816B1012F58
:104A70001FD021E02068012F15D0806925EA0000B1
:104A80000004000C18D000BF44F8309F84F80DA03B
:104A900084F80E90216941F02001216184F80C9086
:104AA0000120BDE8F087406925EA00000004000C01
:104AB000EAD12068406901E02068806925EA0000A9
:104AC0000004000CAFD1ECE72DE9F0410025904641
:104AD0000E460446202728E04069C043C0060CD497
:104AE00054F8301B6FF01000486144F81059677794
:104AF000A577206A2062257714E0FDF75BFBA0EB29
:104B00000800B04200D886B920684069C04340061A
:104B10000BD544F8305F6773A573206940F020001F
:104B2000206125730120BDE8F08120684169C943F7
:104B30004906D1D40020F6E770B516460D46044666
:104B40001EE02046FFF740FA08B1012070BD681C46
:104B500016D0FDF72FFB801BA84200D885B920682E
:104B60004069C04300060BD5002044F8300F2021D7
:104B70006173A073216941F0200121612073E4E792
:104B800020684069C0430006DBD4002070BD2DE9D9
:104B9000F04186B08046012504A8CDE900056424D3
:104BA0002B467522D02102944046FDF74BFD9DF81F
:104BB0001000702803D0012006B0BDE8F081002766
:104BC00003AE8DF80C700096CDE9015401236B22E1
:104BD000D0214046FDF738FE07208DF80C000096E6
:104BE000CDE9015401231922D0214046FDF72CFEC6
:104BF0008DF80C700096CDE9015401231A22D021C2
:104C00004046FDF721FE8DF80C700096CDE9015469
:104C100001231B22D0214046FDF716FE8DF80C70B3
:104C20000096CDE9015401231C22D0214046FDF716
:104C30000BFE0020C0E7000070B588B00C4664236E
:104C40000E2203A98DE80E0001233B22D021FDF79F
:104C5000F9FCBDF80C0040BA06B2BDF80E0000EE3B
:104C6000106A40BA05B2BDF81000F8EEC00A40BAAA
:104C700003B2BDF814009FED1E0A40BA02B2BDF89F
:104C8000160060EE800A40BA01B2BDF81800C4ED0B
:104C9000000A00EE905A40BA00B2F8EEE00A60EE68
:104CA000800AC4ED010A00EE903AF8EEE00A20EE28
:104CB000800A84ED020A00EE102AF8EEC00A9FED89
:104CC0000D0A80EE801A00EE901AF8EEE00A84EDEC
:104CD000031A80EE801A00EE900AF8EEE00A84EDE6
:104CE000041A80EE801A84ED051A08B070BD000029
:104CF00000008038000003437FB50024154800946D
:104D0000019402941249039401604FF48031C0E988
:104D100001140461047680F820400F49C0E90A14A8
:104D20000125C561C46080F830404561FCF73DFE57
:104D300008B1FCF782FD0220CDE900056946029426
:104D40000448FCF77DFD002801D0FCF776FD7FBD0F
:104D500000200140BC0100200100000F154808B5EB
:104D6000016841F4800101600068002200F48000C5
:104D7000009011463920FDF7B1FE3920FDF7A0FE65
:104D8000002211463A20FDF7A9FE3A20FDF798FED1
:104D9000002211464520FDF7A1FE4520FDF790FEBB
:104DA000002211464620FDF799FEBDE80840462046
:104DB000FDF786BE3038024030B587B01421684612
:104DC000FBF7D7FB25480024016841F0040101608E
:104DD000016801F004010591016841F08001016062
:104DE000016801F080010591016841F00101016055
:104DF000016801F001010591016841F002010160C3
:104E00000068174D00F0020005900022202128467E
:104E1000FDF7CAF94FF4005000904FF40410CDE9AB
:104E2000010469460F48FDF7D1F8082000900220E0
:104E3000CDE9010403200390072004906946284629
:104E4000FDF7C4F8202000900120CDE90104694657
:104E500028460394FDF7BAF807B030BD3038024059
:104E600000000240000802400D4810B50B490160E7
:104E70000C49416000214FF480428160C0E9031277
:104E800041618161C1610162FDF712FB002803D01D
:104E9000BDE81040FCF7D1BC10BD0000005400403C
:104EA00004020020A086010010B58CB024216846C1
:104EB000FBF75FFB0024144809944FF080410A94EB
:104EC000C0E90014611EC0E902410461846101204F
:104ED000CDE90004CDE902040494CDE9054007942E
:104EE000694609480894FEF78FF908B1FCF7A5FC5C
:104EF000099409A904480A94FEF73EF9002801D054
:104F0000FCF79BFC0CB010BD5802002010B58AB015
:104F1000002407941C2168460894FBF72AFB2248CA
:104F2000204901605321C0E9011440F2E731C0E992
:104F300003148461FEF7F6FA08B1FCF77EFC0794CF
:104F400007A919480894FEF717F908B1FCF775FC92
:104F50006020CDE9000402940022694612480494BE
:104F6000FEF77AFA08B1FCF768FC042269460E489D
:104F7000FEF772FA08B1FCF760FC082269460A489D
:104F8000FEF76AFA08B1FCF758FC0C22694606489D
:104F9000FEF762FA08B1FCF750FC0348FEF720FA6E
:104FA0000AB010BD00040040A002002010B58CB073
:104FB00024216846FBF7DDFA0024154809941349BB
:104FC0000A94C0E900144FF6FF71C0E90241046180
:104FD00084610120CDE90004CDE902040494CDE907
:104FE0000540079469460A480894FEF70DF908B190
:104FF000FCF723FC099409A905480A94FEF7BCF8BC
:10500000002801D0FCF719FC0CB010BD00080040CE
:10501000E80200200C4810B50A4901604FF416510F
:105020004160002181600C22C160C0E904128161ED
:10503000C161FEF75FFC002803D0BDE81040FCF71B
:10504000FCBB10BD00100140300300200C4810B51F
:105050000A4901604FF4E1214160002181600C2286
:10506000C160C0E904128161C161FEF743FC002800
:1050700003D0BDE81040FCF7E0BB10BD00140140B8
:1050800078030020FEE7FEE7D0ED030A30EEC00A09
:10509000D0ED040A70EE800AC0ED040AD0ED011ACA
:1050A00090ED051A61EEA00AD0ED001A30EE411A1B
:1050B00041EE800AD0ED021A41EE810AC0ED060AE7
:1050C00080ED050A90ED070AF4EEC00AF1EE10FA41
:1050D00001DD80ED060AD0ED060A90ED080AF4EE37
:1050E000C00AF1EE10FA02D3B0EE600A704780ED0C
:1050F000060A70477047000001780A063CD5B0F8F0
:105100000120D30738D0520800EE102ADFED240A20
:1051100001F07F01B8EE400A234B20EE200ADFEDBC
:10512000210A01E030EE600A10EE102A9A42F9DA04
:1051300002E000BF30EE200AB5EEC00AF1EE10FA30
:10514000F8D3B0F80300B5EE001A00EE900A174A43
:10515000F8EE600A60EE810A10EE900A1044144ADC
:10516000904209D8134880ED130AC0ED140A017269
:105170000121417280ED0A0A0F48C16B09680A6873
:1051800022F001020A60C26B4FF480711268516014
:10519000C06B0068016841F00101016070470000C8
:1051A0000000803C0000B4430000B4430000B8BDE0
:1051B0000080F30300000020780300207047000007
:1051C0000448C178002904D00179002901D10121C6
:1051D0000171704700000020FDF716BC30B593B098
:1051E00034216846FBF7C5F914210DA8FBF7C1F976
:1051F00020480025016841F080510160006800F0FE
:10520000805012901C48016841F4404101600068E0
:10521000022400F4404012900120039010200490DA
:10522000009406940820CDE90750B420CDE9090484
:105230000B9468460C94FDF7BFFD08B172B6FEE70B
:10524000FDF77EFC08B172B6FEE70DA90F2081E8DC
:1052500031004FF4A05010904FF480501190052170
:105260000DA8FDF7A5FC002801D072B6FEE713B02B
:1052700030BD000040380240007000400248016824
:1052800041F470010160704788ED00E0F0B50268FC
:10529000274B284D284E294F294C4FF0804C9842DF
:1052A00009D0604507D0A84205D0B04203D0B8422B
:1052B00001D0A04204D122F0700E4A6842EA0E02E8
:1052C00098421BD0604519D0A84217D0B04215D0E3
:1052D000B84213D0A04211D01A4DA8420ED01A4D98
:1052E000A8420BD0194DA84208D0194DA84205D0AC
:1052F000184DA84202D0184DA84203D122F440759F
:10530000CA682A434D6922F080022A438D68C5622B
:105310000D688562984201D0A04201D109690163FC
:10532000016841F004010160012141610260F0BDAA
:10533000000001400004004000080040000C004054
:105340000004014000400140004401400048014089
:1053500000180040001C00400020004010B501F083
:105360001F030121046A99408C430462016A9A4038
:105370001143016210BD0000F0B5036A026A22F019
:105380000102026242688469124E24F073050C68BF
:105390002C4323F002058B682B430D4DA84201D00E
:1053A000B04205D123F00807CB683B4323F0040348
:1053B000A84201D0B04205D14D6922F44072154394
:1053C0008A692A4342608461496841630362F0BD8F
:1053D0000000014000040140F0B5026A036A23F0B6
:1053E00010030362436884690D6824F4E64444EAC8
:1053F00005248D6822F0200242EA05120F4D104E5E
:10540000A84201D0B04206D1CF6822F0800242EA21
:10541000071222F04002A84201D0B04207D14D69E4
:1054200023F4406343EA85038D6943EA85034360BF
:105430008461496881630262F0BD000000000140A0
:1054400000040140F0B5026A036A23F4807303622A
:105450004368C46922F4007224F073050C68124E8C
:105460002C438D6842EA05220E4DA84201D0B0427D
:1054700006D1CF6822F4006242EA072222F4806259
:10548000A84201D0B04207D14D6923F4405343EA0A
:1054900005138D6943EA05134360C4614968C1631C
:1054A0000262F0BD000001400004014030B5046A12
:1054B000026A22F4805202624268C3690D6823F4D2
:1054C000E64343EA05238D6824F4005444EA053496
:1054D000084DA84202D0084DA84204D14D6922F4DB
:1054E000804242EA85124260C361496801640462F5
:1054F00030BD0000000001400004014010B5806B89
:105500000021C185FEF7B5F810BD70B5846B206829
:10551000406994F84110C0F3C0100025212904D13E
:1055200018B1E584204600F08EF82068406994F8B0
:105530004210C0F38010222904D118B1E58520461D
:1055400000F05AF8606C40F0100060642046FEF7EE
:1055500090F870BD10B50146806B096809684FF07E
:105560000002C9052ED4C28501680C3151E8003F04
:1055700023F4807341E80034002CF5D10168143124
:1055800051E8003F23F0010341E80034002CF5D13D
:105590000168143151E8003F23F0400341E8003432
:1055A000002CF5D1202180F84210016B012909D18E
:1055B00001680C3151E8003F23F0100341E800344A
:1055C000002CF5D14263016B012902D0FEF7A2FA4B
:1055D00010BD818DFEF74CF810BD10B5806B012118
:1055E0004163016B012902D0FEF736FB10BD818DAE
:1055F0004908FEF73DF810BD01680C3151E8002F55
:1056000022F4907241E80023002BF5D10168143197
:1056100051E8002F22F0010241E80023002BF5D1D0
:10562000016B012909D101680C3151E8002F22F0EA
:10563000100241E80023002BF5D1202180F8421010
:1056400000210163704701680C3151E8002F22F0FE
:10565000C00241E80023002BF5D1202180F8411041
:10566000704708B590F84210222901D0022008BDE9
:1056700082684FF480539A4201D1016921B1816A55
:105680009A421BD04AB10AE00268816A5268C2F3AA
:1056900008020A80816A891C08E0026972B1026806
:1056A000526802F07F020A70816A491C8162C18DD2
:1056B000491E0904090CC18503D01BE00268526829
:1056C000F1E70168CA6822F02002CA600168CA686E
:1056D00022F48072CA6001684A6922F001024A61BC
:1056E000202180F8421000214163026B012A03D07F
:1056F000FEF710FA002008BD016301680C3151E883
:10570000002F22F0100241E80023002BF5D10168A0
:105710000A68D20602D50A6849680091818DFDF7B2
:10572000A7FFE7E770B5044600680169E26821F465
:105730004051114301612169A068E2690843616930
:10574000114308432168CA6849F20C639A43024333
:10575000CA6020684169A26921F440711143416126
:1057600031492068884202D03049884202D1FDF791
:10577000C9FA01E0FDF7B6FAE269002319216425B0
:105780003226B2F5004F626828D0A0FB0101930FCA
:105790009200FAF797FD0146B0FBF5F06FF01802A2
:1057A000504301EB800006EB0010B0FBF5F000F079
:1057B000F002B1FBF5F002EB0012B1FBF5F06FF077
:1057C0001803584301EB800006EB0010B0FBF5F026
:1057D00000F00F0021681044886070BDA0FB01013B
:1057E00092185B41FAF76EFD0146B0FBF5F002013D
:1057F000B1FBF5F06FF01803584301EB800006EBA6
:10580000C000B0FBF5F000F0F80002EB4002B1FB85
:10581000F5F0584301EB800006EBC000B0FBF5F05B
:1058200000F00700D6E7000000100140001401401E
:1058300038B58162044682850020134660642222C6
:1058400084F84220E56B1F4AEA63E56B1E4A2A642E
:10585000E56B1E4AEA64E26B10650A462168E06B5C
:10586000091DFCF769FB30B110206064202084F82A
:105870004200012038BD206801684068009020691E
:1058800048B120680C3050E8001F41F4807140E8B6
:105890000012002AF5D12068143050E8001F41F0B2
:1058A000010140E80012002AF5D12068143050E8C8
:1058B000001F41F0400140E80012002AF5D100200D
:1058C00038BD000055550008DB5500080B55000891
:1058D00081628285C28500214164222180F84210C4
:1058E000016921B10168CA6842F48072CA60016826
:1058F0004A6942F001024A610068C16841F0200132
:10590000C160002070472DE9F843984617460D46C0
:105910000446089E24E0701C22D0FCF74BFCA0EB50
:105920000800B0421AD8CEB12068C168490717D51F
:10593000802D15D0402D13D00168C94309070FD41D
:1059400001680025406800902046FFF755FE0820BA
:10595000606484F840500120BDE8F8830320FBE731
:105960002068006835EA000004D00020B842D2D098
:105970000020F1E70120F9E70148FDF77BBE0000B8
:105980003003002010B5FCF715FC24498A69821AFF
:105990001E2A42D3886148788A7890422FD0012805
:1059A00001D0022804D1A2B1012A12D0022A10D0BB
:1059B000032813D0042811D005280FD000282CD19B
:1059C00000244C610B699BB1F02B0DD9783B0B6126
:1059D0000BE088704FF4AF724A6103E04FF49672A7
:1059E0004A618870002106E00C610021104602E047
:1059F000887000210846BDE81040FBF747BE002A2A
:105A00000BD0D1E90403984202D200F1780002E001
:105A1000EBD9A0F178000861E7E710BD0000002095
:105A2000FEE703B401984100009850EAC12018BF76
:105A300004204A0D18BF40F0010040F2FF72B2EBA3
:105A4000515F08BF40F00200012808BF052002B0E6
:105A500070470907090E002804DB00F1E02080F8F8
:105A60000014704700F00F0000F1E02080F8141DD2
:105A7000704730380A2801D2012070470020704753
:105A8000401AB0F1004F00DC401E70472DED048B32
:105A900098B0FCF7C1FFFFF7A1FBFFF78DF9FFF707
:105AA0005DF9FFF729F9FFF7FFF9FFF72FFAFFF785
:105AB0007DFAFFF7AFFAFFF7C9FAFFF7D5F93C21F6
:105AC000BF48FDF745FC3C21BE48FDF741FC0021E5
:105AD000BD48FDF769FD0421BB48FDF765FD0821C0
